{
  "_format": "hh-sol-artifact-1",
  "contractName": "Tracking",
  "sourceName": "contracts/Tracking.sol",
  "abi": [
    {
      "inputs": [],
      "stateMutability": "nonpayable",
      "type": "constructor"
    },
    {
      "anonymous": false,
      "inputs": [
        {
          "indexed": true,
          "internalType": "address",
          "name": "sender",
          "type": "address"
        },
        {
          "indexed": true,
          "internalType": "address",
          "name": "receiver",
          "type": "address"
        },
        {
          "indexed": false,
          "internalType": "uint256",
          "name": "price",
          "type": "uint256"
        },
        {
          "indexed": false,
          "internalType": "uint256",
          "name": "distance",
          "type": "uint256"
        },
        {
          "indexed": false,
          "internalType": "uint256",
          "name": "pickupTime",
          "type": "uint256"
        }
      ],
      "name": "ShipmentCreated",
      "type": "event"
    },
    {
      "anonymous": false,
      "inputs": [
        {
          "indexed": true,
          "internalType": "address",
          "name": "sender",
          "type": "address"
        },
        {
          "indexed": true,
          "internalType": "address",
          "name": "receiver",
          "type": "address"
        },
        {
          "indexed": false,
          "internalType": "uint256",
          "name": "deliveryTime",
          "type": "uint256"
        }
      ],
      "name": "ShipmentDelivered",
      "type": "event"
    },
    {
      "anonymous": false,
      "inputs": [
        {
          "indexed": true,
          "internalType": "address",
          "name": "sender",
          "type": "address"
        },
        {
          "indexed": true,
          "internalType": "address",
          "name": "receiver",
          "type": "address"
        },
        {
          "indexed": false,
          "internalType": "uint256",
          "name": "pickupTime",
          "type": "uint256"
        }
      ],
      "name": "ShipmentInTransit",
      "type": "event"
    },
    {
      "anonymous": false,
      "inputs": [
        {
          "indexed": true,
          "internalType": "address",
          "name": "sender",
          "type": "address"
        },
        {
          "indexed": true,
          "internalType": "address",
          "name": "receiver",
          "type": "address"
        },
        {
          "indexed": false,
          "internalType": "uint256",
          "name": "amount",
          "type": "uint256"
        }
      ],
      "name": "ShipmentPaid",
      "type": "event"
    },
    {
      "inputs": [
        {
          "internalType": "address",
          "name": "_sender",
          "type": "address"
        },
        {
          "internalType": "address",
          "name": "_receiver",
          "type": "address"
        },
        {
          "internalType": "uint256",
          "name": "_index",
          "type": "uint256"
        }
      ],
      "name": "completeShipment",
      "outputs": [],
      "stateMutability": "nonpayable",
      "type": "function"
    },
    {
      "inputs": [
        {
          "internalType": "address",
          "name": "_receiver",
          "type": "address"
        },
        {
          "internalType": "uint256",
          "name": "_price",
          "type": "uint256"
        },
        {
          "internalType": "uint256",
          "name": "_distance",
          "type": "uint256"
        },
        {
          "internalType": "uint256",
          "name": "_pickupTime",
          "type": "uint256"
        }
      ],
      "name": "createShipment",
      "outputs": [],
      "stateMutability": "payable",
      "type": "function"
    },
    {
      "inputs": [],
      "name": "getAllTransactions",
      "outputs": [
        {
          "components": [
            {
              "internalType": "address",
              "name": "sender",
              "type": "address"
            },
            {
              "internalType": "address",
              "name": "receiver",
              "type": "address"
            },
            {
              "internalType": "uint256",
              "name": "price",
              "type": "uint256"
            },
            {
              "internalType": "uint256",
              "name": "distance",
              "type": "uint256"
            },
            {
              "internalType": "uint256",
              "name": "pickupTime",
              "type": "uint256"
            },
            {
              "internalType": "uint256",
              "name": "deliveryTime",
              "type": "uint256"
            },
            {
              "internalType": "bool",
              "name": "isPaid",
              "type": "bool"
            },
            {
              "internalType": "enum Tracking.ShipmentStatus",
              "name": "status",
              "type": "uint8"
            }
          ],
          "internalType": "struct Tracking.TypeShipment[]",
          "name": "",
          "type": "tuple[]"
        }
      ],
      "stateMutability": "view",
      "type": "function"
    },
    {
      "inputs": [
        {
          "internalType": "address",
          "name": "_sender",
          "type": "address"
        },
        {
          "internalType": "uint256",
          "name": "_index",
          "type": "uint256"
        }
      ],
      "name": "getShipment",
      "outputs": [
        {
          "internalType": "address",
          "name": "",
          "type": "address"
        },
        {
          "internalType": "address",
          "name": "",
          "type": "address"
        },
        {
          "internalType": "uint256",
          "name": "",
          "type": "uint256"
        },
        {
          "internalType": "uint256",
          "name": "",
          "type": "uint256"
        },
        {
          "internalType": "uint256",
          "name": "",
          "type": "uint256"
        },
        {
          "internalType": "uint256",
          "name": "",
          "type": "uint256"
        },
        {
          "internalType": "bool",
          "name": "",
          "type": "bool"
        },
        {
          "internalType": "enum Tracking.ShipmentStatus",
          "name": "",
          "type": "uint8"
        }
      ],
      "stateMutability": "view",
      "type": "function"
    },
    {
      "inputs": [
        {
          "internalType": "address",
          "name": "_sender",
          "type": "address"
        }
      ],
      "name": "getShipmentsCount",
      "outputs": [
        {
          "internalType": "uint256",
          "name": "",
          "type": "uint256"
        }
      ],
      "stateMutability": "view",
      "type": "function"
    },
    {
      "inputs": [],
      "name": "shipmentCount",
      "outputs": [
        {
          "internalType": "uint256",
          "name": "",
          "type": "uint256"
        }
      ],
      "stateMutability": "view",
      "type": "function"
    },
    {
      "inputs": [
        {
          "internalType": "address",
          "name": "",
          "type": "address"
        },
        {
          "internalType": "uint256",
          "name": "",
          "type": "uint256"
        }
      ],
      "name": "shipments",
      "outputs": [
        {
          "internalType": "address",
          "name": "sender",
          "type": "address"
        },
        {
          "internalType": "address",
          "name": "receiver",
          "type": "address"
        },
        {
          "internalType": "uint256",
          "name": "price",
          "type": "uint256"
        },
        {
          "internalType": "uint256",
          "name": "distance",
          "type": "uint256"
        },
        {
          "internalType": "uint256",
          "name": "pickupTime",
          "type": "uint256"
        },
        {
          "internalType": "uint256",
          "name": "deliveryTime",
          "type": "uint256"
        },
        {
          "internalType": "bool",
          "name": "isPaid",
          "type": "bool"
        },
        {
          "internalType": "enum Tracking.ShipmentStatus",
          "name": "status",
          "type": "uint8"
        }
      ],
      "stateMutability": "view",
      "type": "function"
    },
    {
      "inputs": [
        {
          "internalType": "address",
          "name": "_sender",
          "type": "address"
        },
        {
          "internalType": "address",
          "name": "_receiver",
          "type": "address"
        },
        {
          "internalType": "uint256",
          "name": "_index",
          "type": "uint256"
        }
      ],
      "name": "startShipment",
      "outputs": [],
      "stateMutability": "nonpayable",
      "type": "function"
    }
  ],
  "bytecode": "0x608060405234801561001057600080fd5b5060008081905550611971806100276000396000f3fe60806040526004361061007b5760003560e01c80637ff5265d1161004e5780637ff5265d146101555780638365da541461017e578063aace20b7146101c2578063cbc4b181146101ed5761007b565b8063179a878c1461008057806327506f53146100a957806341fdc195146100d45780635667e02f14610111575b600080fd5b34801561008c57600080fd5b506100a760048036038101906100a291906111c5565b610209565b005b3480156100b557600080fd5b506100be6105de565b6040516100cb919061141a565b60405180910390f35b3480156100e057600080fd5b506100fb60048036038101906100f6919061143c565b610768565b6040516101089190611478565b60405180910390f35b34801561011d57600080fd5b5061013860048036038101906101339190611493565b6107b4565b60405161014c989796959493929190611500565b60405180910390f35b34801561016157600080fd5b5061017c600480360381019061017791906111c5565b610873565b005b34801561018a57600080fd5b506101a560048036038101906101a09190611493565b610ad0565b6040516101b9989796959493929190611500565b60405180910390f35b3480156101ce57600080fd5b506101d7610cbb565b6040516101e49190611478565b60405180910390f35b6102076004803603810190610202919061157e565b610cc1565b005b6000600160008573ffffffffffffffffffffffffffffffffffffffff1673ffffffffffffffffffffffffffffffffffffffff168152602001908152602001600020828154811061025c5761025b6115e5565b5b90600052602060002090600702019050600060028381548110610282576102816115e5565b5b906000526020600020906007020190508373ffffffffffffffffffffffffffffffffffffffff168260010160009054906101000a900473ffffffffffffffffffffffffffffffffffffffff1673ffffffffffffffffffffffffffffffffffffffff1614610324576040517f08c379a000000000000000000000000000000000000000000000000000000000815260040161031b90611671565b60405180910390fd5b600160028111156103385761033761127d565b5b8260060160019054906101000a900460ff16600281111561035c5761035b61127d565b5b1461039c576040517f08c379a000000000000000000000000000000000000000000000000000000000815260040161039390611703565b60405180910390fd5b8160060160009054906101000a900460ff16156103ee576040517f08c379a00000000000000000000000000000000000000000000000000000000081526004016103e59061176f565b60405180910390fd5b60028260060160016101000a81548160ff021916908360028111156104165761041561127d565b5b021790555042826005018190555060028160060160016101000a81548160ff0219169083600281111561044c5761044b61127d565b5b02179055504281600501819055506000826002015490508260000160009054906101000a900473ffffffffffffffffffffffffffffffffffffffff1673ffffffffffffffffffffffffffffffffffffffff166108fc829081150290604051600060405180830381858888f193505050501580156104cd573d6000803e3d6000fd5b5060018360060160006101000a81548160ff02191690831515021790555060018260060160006101000a81548160ff0219169083151502179055508473ffffffffffffffffffffffffffffffffffffffff168673ffffffffffffffffffffffffffffffffffffffff167f3746ccceb54f44c9b0ee0120e596168d07ec9f6ca303cfdd9810d3b2e2686a2e85600501546040516105699190611478565b60405180910390a38473ffffffffffffffffffffffffffffffffffffffff168673ffffffffffffffffffffffffffffffffffffffff167f2b6f2473aebafaf8d0889669490135928ec4454d2e29a103fd39693bbca6aef1836040516105ce9190611478565b60405180910390a3505050505050565b60606002805480602002602001604051908101604052809291908181526020016000905b8282101561075f5783829060005260206000209060070201604051806101000160405290816000820160009054906101000a900473ffffffffffffffffffffffffffffffffffffffff1673ffffffffffffffffffffffffffffffffffffffff1673ffffffffffffffffffffffffffffffffffffffff1681526020016001820160009054906101000a900473ffffffffffffffffffffffffffffffffffffffff1673ffffffffffffffffffffffffffffffffffffffff1673ffffffffffffffffffffffffffffffffffffffff168152602001600282015481526020016003820154815260200160048201548152602001600582015481526020016006820160009054906101000a900460ff161515151581526020016006820160019054906101000a900460ff16600281111561073a5761073961127d565b5b600281111561074c5761074b61127d565b5b8152505081526020019060010190610602565b50505050905090565b6000600160008373ffffffffffffffffffffffffffffffffffffffff1673ffffffffffffffffffffffffffffffffffffffff168152602001908152602001600020805490509050919050565b600160205281600052604060002081815481106107d057600080fd5b9060005260206000209060070201600091509150508060000160009054906101000a900473ffffffffffffffffffffffffffffffffffffffff16908060010160009054906101000a900473ffffffffffffffffffffffffffffffffffffffff16908060020154908060030154908060040154908060050154908060060160009054906101000a900460ff16908060060160019054906101000a900460ff16905088565b6000600160008573ffffffffffffffffffffffffffffffffffffffff1673ffffffffffffffffffffffffffffffffffffffff16815260200190815260200160002082815481106108c6576108c56115e5565b5b906000526020600020906007020190506000600283815481106108ec576108eb6115e5565b5b906000526020600020906007020190508373ffffffffffffffffffffffffffffffffffffffff168260010160009054906101000a900473ffffffffffffffffffffffffffffffffffffffff1673ffffffffffffffffffffffffffffffffffffffff161461098e576040517f08c379a000000000000000000000000000000000000000000000000000000000815260040161098590611671565b60405180910390fd5b600060028111156109a2576109a161127d565b5b8260060160019054906101000a900460ff1660028111156109c6576109c561127d565b5b14610a06576040517f08c379a00000000000000000000000000000000000000000000000000000000081526004016109fd90611801565b60405180910390fd5b60018260060160016101000a81548160ff02191690836002811115610a2e57610a2d61127d565b5b021790555060018160060160016101000a81548160ff02191690836002811115610a5b57610a5a61127d565b5b02179055508373ffffffffffffffffffffffffffffffffffffffff168573ffffffffffffffffffffffffffffffffffffffff167faafab9f94340179ff9cefd29621e1772a4b8efab8023163838f1b0a8f6ce5df58460040154604051610ac19190611478565b60405180910390a35050505050565b6000806000806000806000806000600160008c73ffffffffffffffffffffffffffffffffffffffff1673ffffffffffffffffffffffffffffffffffffffff1681526020019081526020016000208a81548110610b2f57610b2e6115e5565b5b9060005260206000209060070201604051806101000160405290816000820160009054906101000a900473ffffffffffffffffffffffffffffffffffffffff1673ffffffffffffffffffffffffffffffffffffffff1673ffffffffffffffffffffffffffffffffffffffff1681526020016001820160009054906101000a900473ffffffffffffffffffffffffffffffffffffffff1673ffffffffffffffffffffffffffffffffffffffff1673ffffffffffffffffffffffffffffffffffffffff168152602001600282015481526020016003820154815260200160048201548152602001600582015481526020016006820160009054906101000a900460ff161515151581526020016006820160019054906101000a900460ff166002811115610c5d57610c5c61127d565b5b6002811115610c6f57610c6e61127d565b5b815250509050806000015181602001518260400151836060015184608001518560a001518660c001518760e0015198509850985098509850985098509850509295985092959890939650565b60005481565b823414610d03576040517f08c379a0000000000000000000000000000000000000000000000000000000008152600401610cfa9061186d565b60405180910390fd5b60006040518061010001604052803373ffffffffffffffffffffffffffffffffffffffff1681526020018673ffffffffffffffffffffffffffffffffffffffff1681526020018581526020018481526020018381526020016000815260200160001515815260200160006002811115610d7f57610d7e61127d565b5b8152509050600160003373ffffffffffffffffffffffffffffffffffffffff1673ffffffffffffffffffffffffffffffffffffffff16815260200190815260200160002081908060018154018082558091505060019003906000526020600020906007020160009091909190915060008201518160000160006101000a81548173ffffffffffffffffffffffffffffffffffffffff021916908373ffffffffffffffffffffffffffffffffffffffff16021790555060208201518160010160006101000a81548173ffffffffffffffffffffffffffffffffffffffff021916908373ffffffffffffffffffffffffffffffffffffffff16021790555060408201518160020155606082015181600301556080820151816004015560a0820151816005015560c08201518160060160006101000a81548160ff02191690831515021790555060e08201518160060160016101000a81548160ff02191690836002811115610eee57610eed61127d565b5b02179055505050600080815480929190610f07906118bc565b919050555060026040518061010001604052803373ffffffffffffffffffffffffffffffffffffffff1681526020018773ffffffffffffffffffffffffffffffffffffffff1681526020018681526020018581526020018481526020016000815260200160001515815260200160006002811115610f8857610f8761127d565b5b815250908060018154018082558091505060019003906000526020600020906007020160009091909190915060008201518160000160006101000a81548173ffffffffffffffffffffffffffffffffffffffff021916908373ffffffffffffffffffffffffffffffffffffffff16021790555060208201518160010160006101000a81548173ffffffffffffffffffffffffffffffffffffffff021916908373ffffffffffffffffffffffffffffffffffffffff16021790555060408201518160020155606082015181600301556080820151816004015560a0820151816005015560c08201518160060160006101000a81548160ff02191690831515021790555060e08201518160060160016101000a81548160ff021916908360028111156110b5576110b461127d565b5b021790555050508473ffffffffffffffffffffffffffffffffffffffff163373ffffffffffffffffffffffffffffffffffffffff167f5001b34ecf2db5b7bbeddcbbe761ec9ecadcc7638018b98ce3e24995b0e946b686868660405161111d93929190611904565b60405180910390a35050505050565b600080fd5b600073ffffffffffffffffffffffffffffffffffffffff82169050919050565b600061115c82611131565b9050919050565b61116c81611151565b811461117757600080fd5b50565b60008135905061118981611163565b92915050565b6000819050919050565b6111a28161118f565b81146111ad57600080fd5b50565b6000813590506111bf81611199565b92915050565b6000806000606084860312156111de576111dd61112c565b5b60006111ec8682870161117a565b93505060206111fd8682870161117a565b925050604061120e868287016111b0565b9150509250925092565b600081519050919050565b600082825260208201905092915050565b6000819050602082019050919050565b61124d81611151565b82525050565b61125c8161118f565b82525050565b60008115159050919050565b61127781611262565b82525050565b7f4e487b7100000000000000000000000000000000000000000000000000000000600052602160045260246000fd5b600381106112bd576112bc61127d565b5b50565b60008190506112ce826112ac565b919050565b60006112de826112c0565b9050919050565b6112ee816112d3565b82525050565b6101008201600082015161130b6000850182611244565b50602082015161131e6020850182611244565b5060408201516113316040850182611253565b5060608201516113446060850182611253565b5060808201516113576080850182611253565b5060a082015161136a60a0850182611253565b5060c082015161137d60c085018261126e565b5060e082015161139060e08501826112e5565b50505050565b60006113a283836112f4565b6101008301905092915050565b6000602082019050919050565b60006113c782611218565b6113d18185611223565b93506113dc83611234565b8060005b8381101561140d5781516113f48882611396565b97506113ff836113af565b9250506001810190506113e0565b5085935050505092915050565b6000602082019050818103600083015261143481846113bc565b905092915050565b6000602082840312156114525761145161112c565b5b60006114608482850161117a565b91505092915050565b6114728161118f565b82525050565b600060208201905061148d6000830184611469565b92915050565b600080604083850312156114aa576114a961112c565b5b60006114b88582860161117a565b92505060206114c9858286016111b0565b9150509250929050565b6114dc81611151565b82525050565b6114eb81611262565b82525050565b6114fa816112d3565b82525050565b600061010082019050611516600083018b6114d3565b611523602083018a6114d3565b6115306040830189611469565b61153d6060830188611469565b61154a6080830187611469565b61155760a0830186611469565b61156460c08301856114e2565b61157160e08301846114f1565b9998505050505050505050565b600080600080608085870312156115985761159761112c565b5b60006115a68782880161117a565b94505060206115b7878288016111b0565b93505060406115c8878288016111b0565b92505060606115d9878288016111b0565b91505092959194509250565b7f4e487b7100000000000000000000000000000000000000000000000000000000600052603260045260246000fd5b600082825260208201905092915050565b7f496e76616c69642072656365697665722e000000000000000000000000000000600082015250565b600061165b601183611614565b915061166682611625565b602082019050919050565b6000602082019050818103600083015261168a8161164e565b9050919050565b7f536869706d656e7420686173206e6f74206265656e20696e207472616e73697460008201527f2e00000000000000000000000000000000000000000000000000000000000000602082015250565b60006116ed602183611614565b91506116f882611691565b604082019050919050565b6000602082019050818103600083015261171c816116e0565b9050919050565b7f536869706d656e742068617320616c7265616474206265656e20706169642e00600082015250565b6000611759601f83611614565b915061176482611723565b602082019050919050565b600060208201905081810360008301526117888161174c565b9050919050565b7f536869706d656e7420686173206265656e20616c726561647920696e2074726160008201527f6e7369742e000000000000000000000000000000000000000000000000000000602082015250565b60006117eb602583611614565b91506117f68261178f565b604082019050919050565b6000602082019050818103600083015261181a816117de565b9050919050565b7f5061796d656e74206d757374206d61746368207468652070726963652e000000600082015250565b6000611857601d83611614565b915061186282611821565b602082019050919050565b600060208201905081810360008301526118868161184a565b9050919050565b7f4e487b7100000000000000000000000000000000000000000000000000000000600052601160045260246000fd5b60006118c78261118f565b91507fffffffffffffffffffffffffffffffffffffffffffffffffffffffffffffffff82036118f9576118f861188d565b5b600182019050919050565b60006060820190506119196000830186611469565b6119266020830185611469565b6119336040830184611469565b94935050505056fea2646970667358221220ee5dc682fae63b00ce9ac53179cf6ea9b0a98f93845c5d9a58a6cd788225926c64736f6c63430008120033",
  "linkReferences": {},
  "deployedLinkReferences": {}
}