{
  "_format": "hh-sol-artifact-1",
  "contractName": "Tracking",
  "sourceName": "contracts/Tracking.sol",
  "abi": [
    {
      "inputs": [],
      "stateMutability": "nonpayable",
      "type": "constructor"
    },
    {
      "anonymous": false,
      "inputs": [
        {
          "indexed": true,
          "internalType": "address",
          "name": "sender",
          "type": "address"
        },
        {
          "indexed": true,
          "internalType": "address",
          "name": "receiver",
          "type": "address"
        },
        {
          "indexed": false,
          "internalType": "uint256",
          "name": "price",
          "type": "uint256"
        },
        {
          "indexed": false,
          "internalType": "uint256",
          "name": "distance",
          "type": "uint256"
        },
        {
          "indexed": false,
          "internalType": "uint256",
          "name": "pickupTime",
          "type": "uint256"
        }
      ],
      "name": "ShipmentCreated",
      "type": "event"
    },
    {
      "anonymous": false,
      "inputs": [
        {
          "indexed": true,
          "internalType": "address",
          "name": "sender",
          "type": "address"
        },
        {
          "indexed": true,
          "internalType": "address",
          "name": "receiver",
          "type": "address"
        },
        {
          "indexed": false,
          "internalType": "uint256",
          "name": "deliveryTime",
          "type": "uint256"
        }
      ],
      "name": "ShipmentDelivered",
      "type": "event"
    },
    {
      "anonymous": false,
      "inputs": [
        {
          "indexed": true,
          "internalType": "address",
          "name": "sender",
          "type": "address"
        },
        {
          "indexed": true,
          "internalType": "address",
          "name": "receiver",
          "type": "address"
        },
        {
          "indexed": false,
          "internalType": "uint256",
          "name": "pickupTime",
          "type": "uint256"
        }
      ],
      "name": "ShipmentInTransit",
      "type": "event"
    },
    {
      "anonymous": false,
      "inputs": [
        {
          "indexed": true,
          "internalType": "address",
          "name": "sender",
          "type": "address"
        },
        {
          "indexed": true,
          "internalType": "address",
          "name": "receiver",
          "type": "address"
        },
        {
          "indexed": false,
          "internalType": "uint256",
          "name": "amount",
          "type": "uint256"
        }
      ],
      "name": "ShipmentPaid",
      "type": "event"
    },
    {
      "inputs": [
        {
          "internalType": "address",
          "name": "_sender",
          "type": "address"
        },
        {
          "internalType": "address",
          "name": "_receiver",
          "type": "address"
        },
        {
          "internalType": "uint256",
          "name": "_index",
          "type": "uint256"
        }
      ],
      "name": "completeShipment",
      "outputs": [],
      "stateMutability": "nonpayable",
      "type": "function"
    },
    {
      "inputs": [
        {
          "internalType": "address",
          "name": "_receiver",
          "type": "address"
        },
        {
          "internalType": "uint256",
          "name": "_price",
          "type": "uint256"
        },
        {
          "internalType": "uint256",
          "name": "_distance",
          "type": "uint256"
        },
        {
          "internalType": "uint256",
          "name": "_pickupTime",
          "type": "uint256"
        }
      ],
      "name": "createShipment",
      "outputs": [],
      "stateMutability": "payable",
      "type": "function"
    },
    {
      "inputs": [],
      "name": "getAllTransactions",
      "outputs": [
        {
          "components": [
            {
              "internalType": "address",
              "name": "sender",
              "type": "address"
            },
            {
              "internalType": "address",
              "name": "receiver",
              "type": "address"
            },
            {
              "internalType": "uint256",
              "name": "price",
              "type": "uint256"
            },
            {
              "internalType": "uint256",
              "name": "distance",
              "type": "uint256"
            },
            {
              "internalType": "uint256",
              "name": "pickupTime",
              "type": "uint256"
            },
            {
              "internalType": "uint256",
              "name": "deliveryTime",
              "type": "uint256"
            },
            {
              "internalType": "bool",
              "name": "isPaid",
              "type": "bool"
            },
            {
              "internalType": "enum Tracking.ShipmentStatus",
              "name": "status",
              "type": "uint8"
            }
          ],
          "internalType": "struct Tracking.TypeShipment[]",
          "name": "",
          "type": "tuple[]"
        }
      ],
      "stateMutability": "view",
      "type": "function"
    },
    {
      "inputs": [
        {
          "internalType": "address",
          "name": "_sender",
          "type": "address"
        },
        {
          "internalType": "uint256",
          "name": "_index",
          "type": "uint256"
        }
      ],
      "name": "getShipment",
      "outputs": [
        {
          "internalType": "address",
          "name": "",
          "type": "address"
        },
        {
          "internalType": "address",
          "name": "",
          "type": "address"
        },
        {
          "internalType": "uint256",
          "name": "",
          "type": "uint256"
        },
        {
          "internalType": "uint256",
          "name": "",
          "type": "uint256"
        },
        {
          "internalType": "uint256",
          "name": "",
          "type": "uint256"
        },
        {
          "internalType": "uint256",
          "name": "",
          "type": "uint256"
        },
        {
          "internalType": "bool",
          "name": "",
          "type": "bool"
        },
        {
          "internalType": "enum Tracking.ShipmentStatus",
          "name": "",
          "type": "uint8"
        }
      ],
      "stateMutability": "view",
      "type": "function"
    },
    {
      "inputs": [
        {
          "internalType": "address",
          "name": "_sender",
          "type": "address"
        }
      ],
      "name": "getShipmentsCount",
      "outputs": [
        {
          "internalType": "uint256",
          "name": "",
          "type": "uint256"
        }
      ],
      "stateMutability": "view",
      "type": "function"
    },
    {
      "inputs": [],
      "name": "shipmentCount",
      "outputs": [
        {
          "internalType": "uint256",
          "name": "",
          "type": "uint256"
        }
      ],
      "stateMutability": "view",
      "type": "function"
    },
    {
      "inputs": [
        {
          "internalType": "address",
          "name": "",
          "type": "address"
        },
        {
          "internalType": "uint256",
          "name": "",
          "type": "uint256"
        }
      ],
      "name": "shipments",
      "outputs": [
        {
          "internalType": "address",
          "name": "sender",
          "type": "address"
        },
        {
          "internalType": "address",
          "name": "receiver",
          "type": "address"
        },
        {
          "internalType": "uint256",
          "name": "price",
          "type": "uint256"
        },
        {
          "internalType": "uint256",
          "name": "distance",
          "type": "uint256"
        },
        {
          "internalType": "uint256",
          "name": "pickupTime",
          "type": "uint256"
        },
        {
          "internalType": "uint256",
          "name": "deliveryTime",
          "type": "uint256"
        },
        {
          "internalType": "bool",
          "name": "isPaid",
          "type": "bool"
        },
        {
          "internalType": "enum Tracking.ShipmentStatus",
          "name": "status",
          "type": "uint8"
        }
      ],
      "stateMutability": "view",
      "type": "function"
    },
    {
      "inputs": [
        {
          "internalType": "address",
          "name": "_sender",
          "type": "address"
        },
        {
          "internalType": "address",
          "name": "_receiver",
          "type": "address"
        },
        {
          "internalType": "uint256",
          "name": "_index",
          "type": "uint256"
        }
      ],
      "name": "startShipment",
      "outputs": [],
      "stateMutability": "nonpayable",
      "type": "function"
    }
  ],
  "bytecode": "0x608060405234801561001057600080fd5b5060008081905550611970806100276000396000f3fe60806040526004361061007b5760003560e01c80637ff5265d1161004e5780637ff5265d146101555780638365da541461017e578063aace20b7146101c2578063cbc4b181146101ed5761007b565b8063179a878c1461008057806327506f53146100a957806341fdc195146100d45780635667e02f14610111575b600080fd5b34801561008c57600080fd5b506100a760048036038101906100a291906111c4565b610209565b005b3480156100b557600080fd5b506100be6105de565b6040516100cb9190611419565b60405180910390f35b3480156100e057600080fd5b506100fb60048036038101906100f6919061143b565b610768565b6040516101089190611477565b60405180910390f35b34801561011d57600080fd5b5061013860048036038101906101339190611492565b6107b3565b60405161014c9897969594939291906114ff565b60405180910390f35b34801561016157600080fd5b5061017c600480360381019061017791906111c4565b610872565b005b34801561018a57600080fd5b506101a560048036038101906101a09190611492565b610acf565b6040516101b99897969594939291906114ff565b60405180910390f35b3480156101ce57600080fd5b506101d7610cba565b6040516101e49190611477565b60405180910390f35b6102076004803603810190610202919061157d565b610cc0565b005b6000600160008573ffffffffffffffffffffffffffffffffffffffff1673ffffffffffffffffffffffffffffffffffffffff168152602001908152602001600020828154811061025c5761025b6115e4565b5b90600052602060002090600702019050600060028381548110610282576102816115e4565b5b906000526020600020906007020190508373ffffffffffffffffffffffffffffffffffffffff168260010160009054906101000a900473ffffffffffffffffffffffffffffffffffffffff1673ffffffffffffffffffffffffffffffffffffffff1614610324576040517f08c379a000000000000000000000000000000000000000000000000000000000815260040161031b90611670565b60405180910390fd5b600160028111156103385761033761127c565b5b8260060160019054906101000a900460ff16600281111561035c5761035b61127c565b5b1461039c576040517f08c379a000000000000000000000000000000000000000000000000000000000815260040161039390611702565b60405180910390fd5b8160060160009054906101000a900460ff16156103ee576040517f08c379a00000000000000000000000000000000000000000000000000000000081526004016103e59061176e565b60405180910390fd5b60028260060160016101000a81548160ff021916908360028111156104165761041561127c565b5b021790555042826005018190555060028160060160016101000a81548160ff0219169083600281111561044c5761044b61127c565b5b02179055504281600501819055506000826002015490508260000160009054906101000a900473ffffffffffffffffffffffffffffffffffffffff1673ffffffffffffffffffffffffffffffffffffffff166108fc829081150290604051600060405180830381858888f193505050501580156104cd573d6000803e3d6000fd5b5060018360060160006101000a81548160ff02191690831515021790555060018260060160006101000a81548160ff0219169083151502179055508473ffffffffffffffffffffffffffffffffffffffff168673ffffffffffffffffffffffffffffffffffffffff167f3746ccceb54f44c9b0ee0120e596168d07ec9f6ca303cfdd9810d3b2e2686a2e85600501546040516105699190611477565b60405180910390a38473ffffffffffffffffffffffffffffffffffffffff168673ffffffffffffffffffffffffffffffffffffffff167f2b6f2473aebafaf8d0889669490135928ec4454d2e29a103fd39693bbca6aef1836040516105ce9190611477565b60405180910390a3505050505050565b60606002805480602002602001604051908101604052809291908181526020016000905b8282101561075f5783829060005260206000209060070201604051806101000160405290816000820160009054906101000a900473ffffffffffffffffffffffffffffffffffffffff1673ffffffffffffffffffffffffffffffffffffffff1673ffffffffffffffffffffffffffffffffffffffff1681526020016001820160009054906101000a900473ffffffffffffffffffffffffffffffffffffffff1673ffffffffffffffffffffffffffffffffffffffff1673ffffffffffffffffffffffffffffffffffffffff168152602001600282015481526020016003820154815260200160048201548152602001600582015481526020016006820160009054906101000a900460ff161515151581526020016006820160019054906101000a900460ff16600281111561073a5761073961127c565b5b600281111561074c5761074b61127c565b5b8152505081526020019060010190610602565b50505050905090565b6000600160008373ffffffffffffffffffffffffffffffffffffffff1673ffffffffffffffffffffffffffffffffffffffff1681526020019081526020016000208054905050919050565b600160205281600052604060002081815481106107cf57600080fd5b9060005260206000209060070201600091509150508060000160009054906101000a900473ffffffffffffffffffffffffffffffffffffffff16908060010160009054906101000a900473ffffffffffffffffffffffffffffffffffffffff16908060020154908060030154908060040154908060050154908060060160009054906101000a900460ff16908060060160019054906101000a900460ff16905088565b6000600160008573ffffffffffffffffffffffffffffffffffffffff1673ffffffffffffffffffffffffffffffffffffffff16815260200190815260200160002082815481106108c5576108c46115e4565b5b906000526020600020906007020190506000600283815481106108eb576108ea6115e4565b5b906000526020600020906007020190508373ffffffffffffffffffffffffffffffffffffffff168260010160009054906101000a900473ffffffffffffffffffffffffffffffffffffffff1673ffffffffffffffffffffffffffffffffffffffff161461098d576040517f08c379a000000000000000000000000000000000000000000000000000000000815260040161098490611670565b60405180910390fd5b600060028111156109a1576109a061127c565b5b8260060160019054906101000a900460ff1660028111156109c5576109c461127c565b5b14610a05576040517f08c379a00000000000000000000000000000000000000000000000000000000081526004016109fc90611800565b60405180910390fd5b60018260060160016101000a81548160ff02191690836002811115610a2d57610a2c61127c565b5b021790555060018160060160016101000a81548160ff02191690836002811115610a5a57610a5961127c565b5b02179055508373ffffffffffffffffffffffffffffffffffffffff168573ffffffffffffffffffffffffffffffffffffffff167faafab9f94340179ff9cefd29621e1772a4b8efab8023163838f1b0a8f6ce5df58460040154604051610ac09190611477565b60405180910390a35050505050565b6000806000806000806000806000600160008c73ffffffffffffffffffffffffffffffffffffffff1673ffffffffffffffffffffffffffffffffffffffff1681526020019081526020016000208a81548110610b2e57610b2d6115e4565b5b9060005260206000209060070201604051806101000160405290816000820160009054906101000a900473ffffffffffffffffffffffffffffffffffffffff1673ffffffffffffffffffffffffffffffffffffffff1673ffffffffffffffffffffffffffffffffffffffff1681526020016001820160009054906101000a900473ffffffffffffffffffffffffffffffffffffffff1673ffffffffffffffffffffffffffffffffffffffff1673ffffffffffffffffffffffffffffffffffffffff168152602001600282015481526020016003820154815260200160048201548152602001600582015481526020016006820160009054906101000a900460ff161515151581526020016006820160019054906101000a900460ff166002811115610c5c57610c5b61127c565b5b6002811115610c6e57610c6d61127c565b5b815250509050806000015181602001518260400151836060015184608001518560a001518660c001518760e0015198509850985098509850985098509850509295985092959890939650565b60005481565b823414610d02576040517f08c379a0000000000000000000000000000000000000000000000000000000008152600401610cf99061186c565b60405180910390fd5b60006040518061010001604052803373ffffffffffffffffffffffffffffffffffffffff1681526020018673ffffffffffffffffffffffffffffffffffffffff1681526020018581526020018481526020018381526020016000815260200160001515815260200160006002811115610d7e57610d7d61127c565b5b8152509050600160003373ffffffffffffffffffffffffffffffffffffffff1673ffffffffffffffffffffffffffffffffffffffff16815260200190815260200160002081908060018154018082558091505060019003906000526020600020906007020160009091909190915060008201518160000160006101000a81548173ffffffffffffffffffffffffffffffffffffffff021916908373ffffffffffffffffffffffffffffffffffffffff16021790555060208201518160010160006101000a81548173ffffffffffffffffffffffffffffffffffffffff021916908373ffffffffffffffffffffffffffffffffffffffff16021790555060408201518160020155606082015181600301556080820151816004015560a0820151816005015560c08201518160060160006101000a81548160ff02191690831515021790555060e08201518160060160016101000a81548160ff02191690836002811115610eed57610eec61127c565b5b02179055505050600080815480929190610f06906118bb565b919050555060026040518061010001604052803373ffffffffffffffffffffffffffffffffffffffff1681526020018773ffffffffffffffffffffffffffffffffffffffff1681526020018681526020018581526020018481526020016000815260200160001515815260200160006002811115610f8757610f8661127c565b5b815250908060018154018082558091505060019003906000526020600020906007020160009091909190915060008201518160000160006101000a81548173ffffffffffffffffffffffffffffffffffffffff021916908373ffffffffffffffffffffffffffffffffffffffff16021790555060208201518160010160006101000a81548173ffffffffffffffffffffffffffffffffffffffff021916908373ffffffffffffffffffffffffffffffffffffffff16021790555060408201518160020155606082015181600301556080820151816004015560a0820151816005015560c08201518160060160006101000a81548160ff02191690831515021790555060e08201518160060160016101000a81548160ff021916908360028111156110b4576110b361127c565b5b021790555050508473ffffffffffffffffffffffffffffffffffffffff163373ffffffffffffffffffffffffffffffffffffffff167f5001b34ecf2db5b7bbeddcbbe761ec9ecadcc7638018b98ce3e24995b0e946b686868660405161111c93929190611903565b60405180910390a35050505050565b600080fd5b600073ffffffffffffffffffffffffffffffffffffffff82169050919050565b600061115b82611130565b9050919050565b61116b81611150565b811461117657600080fd5b50565b60008135905061118881611162565b92915050565b6000819050919050565b6111a18161118e565b81146111ac57600080fd5b50565b6000813590506111be81611198565b92915050565b6000806000606084860312156111dd576111dc61112b565b5b60006111eb86828701611179565b93505060206111fc86828701611179565b925050604061120d868287016111af565b9150509250925092565b600081519050919050565b600082825260208201905092915050565b6000819050602082019050919050565b61124c81611150565b82525050565b61125b8161118e565b82525050565b60008115159050919050565b61127681611261565b82525050565b7f4e487b7100000000000000000000000000000000000000000000000000000000600052602160045260246000fd5b600381106112bc576112bb61127c565b5b50565b60008190506112cd826112ab565b919050565b60006112dd826112bf565b9050919050565b6112ed816112d2565b82525050565b6101008201600082015161130a6000850182611243565b50602082015161131d6020850182611243565b5060408201516113306040850182611252565b5060608201516113436060850182611252565b5060808201516113566080850182611252565b5060a082015161136960a0850182611252565b5060c082015161137c60c085018261126d565b5060e082015161138f60e08501826112e4565b50505050565b60006113a183836112f3565b6101008301905092915050565b6000602082019050919050565b60006113c682611217565b6113d08185611222565b93506113db83611233565b8060005b8381101561140c5781516113f38882611395565b97506113fe836113ae565b9250506001810190506113df565b5085935050505092915050565b6000602082019050818103600083015261143381846113bb565b905092915050565b6000602082840312156114515761145061112b565b5b600061145f84828501611179565b91505092915050565b6114718161118e565b82525050565b600060208201905061148c6000830184611468565b92915050565b600080604083850312156114a9576114a861112b565b5b60006114b785828601611179565b92505060206114c8858286016111af565b9150509250929050565b6114db81611150565b82525050565b6114ea81611261565b82525050565b6114f9816112d2565b82525050565b600061010082019050611515600083018b6114d2565b611522602083018a6114d2565b61152f6040830189611468565b61153c6060830188611468565b6115496080830187611468565b61155660a0830186611468565b61156360c08301856114e1565b61157060e08301846114f0565b9998505050505050505050565b600080600080608085870312156115975761159661112b565b5b60006115a587828801611179565b94505060206115b6878288016111af565b93505060406115c7878288016111af565b92505060606115d8878288016111af565b91505092959194509250565b7f4e487b7100000000000000000000000000000000000000000000000000000000600052603260045260246000fd5b600082825260208201905092915050565b7f496e76616c69642072656365697665722e000000000000000000000000000000600082015250565b600061165a601183611613565b915061166582611624565b602082019050919050565b600060208201905081810360008301526116898161164d565b9050919050565b7f536869706d656e7420686173206e6f74206265656e20696e207472616e73697460008201527f2e00000000000000000000000000000000000000000000000000000000000000602082015250565b60006116ec602183611613565b91506116f782611690565b604082019050919050565b6000602082019050818103600083015261171b816116df565b9050919050565b7f536869706d656e742068617320616c7265616474206265656e20706169642e00600082015250565b6000611758601f83611613565b915061176382611722565b602082019050919050565b600060208201905081810360008301526117878161174b565b9050919050565b7f536869706d656e7420686173206265656e20616c726561647920696e2074726160008201527f6e7369742e000000000000000000000000000000000000000000000000000000602082015250565b60006117ea602583611613565b91506117f58261178e565b604082019050919050565b60006020820190508181036000830152611819816117dd565b9050919050565b7f5061796d656e74206d757374206d61746368207468652070726963652e000000600082015250565b6000611856601d83611613565b915061186182611820565b602082019050919050565b6000602082019050818103600083015261188581611849565b9050919050565b7f4e487b7100000000000000000000000000000000000000000000000000000000600052601160045260246000fd5b60006118c68261118e565b91507fffffffffffffffffffffffffffffffffffffffffffffffffffffffffffffffff82036118f8576118f761188c565b5b600182019050919050565b60006060820190506119186000830186611468565b6119256020830185611468565b6119326040830184611468565b94935050505056fea26469706673582212201c2cc1f379d0179d86623d0f11929f4f723b5dd81b0b538855cba04dbdfa77f664736f6c63430008120033",
  "linkReferences": {},
  "deployedLinkReferences": {}
}